{
  "_format": "hh-sol-artifact-1",
  "contractName": "chai",
  "sourceName": "contracts/chai.sol",
  "abi": [
    {
      "inputs": [],
      "stateMutability": "nonpayable",
      "type": "constructor"
    },
    {
      "inputs": [
        {
          "internalType": "string",
          "name": "name",
          "type": "string"
        },
        {
          "internalType": "string",
          "name": "message",
          "type": "string"
        }
      ],
      "name": "buychai",
      "outputs": [],
      "stateMutability": "payable",
      "type": "function"
    },
    {
      "inputs": [],
      "name": "getmemos",
      "outputs": [
        {
          "components": [
            {
              "internalType": "string",
              "name": "name",
              "type": "string"
            },
            {
              "internalType": "string",
              "name": "message",
              "type": "string"
            },
            {
              "internalType": "uint256",
              "name": "timestamp",
              "type": "uint256"
            },
            {
              "internalType": "address",
              "name": "from",
              "type": "address"
            }
          ],
          "internalType": "struct chai.Memo[]",
          "name": "",
          "type": "tuple[]"
        }
      ],
      "stateMutability": "view",
      "type": "function"
    }
  ],
  "bytecode": "0x608060405234801561001057600080fd5b5033600160006101000a81548173ffffffffffffffffffffffffffffffffffffffff021916908373ffffffffffffffffffffffffffffffffffffffff160217905550610b74806100616000396000f3fe6080604052600436106100295760003560e01c806397aeeef71461002e578063f6503df71461004a575b600080fd5b61004860048036038101906100439190610544565b610075565b005b34801561005657600080fd5b5061005f610207565b60405161006c91906107c1565b60405180910390f35b60003410156100b9576040517f08c379a00000000000000000000000000000000000000000000000000000000081526004016100b090610840565b60405180910390fd5b600160009054906101000a900473ffffffffffffffffffffffffffffffffffffffff1673ffffffffffffffffffffffffffffffffffffffff166108fc349081150290604051600060405180830381858888f19350505050158015610121573d6000803e3d6000fd5b50600060405180608001604052808481526020018381526020014281526020013373ffffffffffffffffffffffffffffffffffffffff16815250908060018154018082558091505060019003906000526020600020906004020160009091909190915060008201518160000190816101999190610a6c565b5060208201518160010190816101af9190610a6c565b506040820151816002015560608201518160030160006101000a81548173ffffffffffffffffffffffffffffffffffffffff021916908373ffffffffffffffffffffffffffffffffffffffff16021790555050505050565b60606000805480602002602001604051908101604052809291908181526020016000905b828210156103e1578382906000526020600020906004020160405180608001604052908160008201805461025e9061088f565b80601f016020809104026020016040519081016040528092919081815260200182805461028a9061088f565b80156102d75780601f106102ac576101008083540402835291602001916102d7565b820191906000526020600020905b8154815290600101906020018083116102ba57829003601f168201915b505050505081526020016001820180546102f09061088f565b80601f016020809104026020016040519081016040528092919081815260200182805461031c9061088f565b80156103695780601f1061033e57610100808354040283529160200191610369565b820191906000526020600020905b81548152906001019060200180831161034c57829003601f168201915b50505050508152602001600282015481526020016003820160009054906101000a900473ffffffffffffffffffffffffffffffffffffffff1673ffffffffffffffffffffffffffffffffffffffff1673ffffffffffffffffffffffffffffffffffffffff16815250508152602001906001019061022b565b50505050905090565b6000604051905090565b600080fd5b600080fd5b600080fd5b600080fd5b6000601f19601f8301169050919050565b7f4e487b7100000000000000000000000000000000000000000000000000000000600052604160045260246000fd5b61045182610408565b810181811067ffffffffffffffff821117156104705761046f610419565b5b80604052505050565b60006104836103ea565b905061048f8282610448565b919050565b600067ffffffffffffffff8211156104af576104ae610419565b5b6104b882610408565b9050602081019050919050565b82818337600083830152505050565b60006104e76104e284610494565b610479565b90508281526020810184848401111561050357610502610403565b5b61050e8482856104c5565b509392505050565b600082601f83011261052b5761052a6103fe565b5b813561053b8482602086016104d4565b91505092915050565b6000806040838503121561055b5761055a6103f4565b5b600083013567ffffffffffffffff811115610579576105786103f9565b5b61058585828601610516565b925050602083013567ffffffffffffffff8111156105a6576105a56103f9565b5b6105b285828601610516565b9150509250929050565b600081519050919050565b600082825260208201905092915050565b6000819050602082019050919050565b600081519050919050565b600082825260208201905092915050565b60005b83811015610622578082015181840152602081019050610607565b60008484015250505050565b6000610639826105e8565b61064381856105f3565b9350610653818560208601610604565b61065c81610408565b840191505092915050565b6000819050919050565b61067a81610667565b82525050565b600073ffffffffffffffffffffffffffffffffffffffff82169050919050565b60006106ab82610680565b9050919050565b6106bb816106a0565b82525050565b600060808301600083015184820360008601526106de828261062e565b915050602083015184820360208601526106f8828261062e565b915050604083015161070d6040860182610671565b50606083015161072060608601826106b2565b508091505092915050565b600061073783836106c1565b905092915050565b6000602082019050919050565b6000610757826105bc565b61076181856105c7565b935083602082028501610773856105d8565b8060005b858110156107af5784840389528151610790858261072b565b945061079b8361073f565b925060208a01995050600181019050610777565b50829750879550505050505092915050565b600060208201905081810360008301526107db818461074c565b905092915050565b600082825260208201905092915050565b7f706179206d6f7265207468616e20312065746865720000000000000000000000600082015250565b600061082a6015836107e3565b9150610835826107f4565b602082019050919050565b600060208201905081810360008301526108598161081d565b9050919050565b7f4e487b7100000000000000000000000000000000000000000000000000000000600052602260045260246000fd5b600060028204905060018216806108a757607f821691505b6020821081036108ba576108b9610860565b5b50919050565b60008190508160005260206000209050919050565b60006020601f8301049050919050565b600082821b905092915050565b6000600883026109227fffffffffffffffffffffffffffffffffffffffffffffffffffffffffffffffff826108e5565b61092c86836108e5565b95508019841693508086168417925050509392505050565b6000819050919050565b600061096961096461095f84610667565b610944565b610667565b9050919050565b6000819050919050565b6109838361094e565b61099761098f82610970565b8484546108f2565b825550505050565b600090565b6109ac61099f565b6109b781848461097a565b505050565b5b818110156109db576109d06000826109a4565b6001810190506109bd565b5050565b601f821115610a20576109f1816108c0565b6109fa846108d5565b81016020851015610a09578190505b610a1d610a15856108d5565b8301826109bc565b50505b505050565b600082821c905092915050565b6000610a4360001984600802610a25565b1980831691505092915050565b6000610a5c8383610a32565b9150826002028217905092915050565b610a75826105e8565b67ffffffffffffffff811115610a8e57610a8d610419565b5b610a98825461088f565b610aa38282856109df565b600060209050601f831160018114610ad65760008415610ac4578287015190505b610ace8582610a50565b865550610b36565b601f198416610ae4866108c0565b60005b82811015610b0c57848901518255600182019150602085019450602081019050610ae7565b86831015610b295784890151610b25601f891682610a32565b8355505b6001600288020188555050505b50505050505056fea2646970667358221220ae028c96598c73f44469294cabd0d44cc4788c4a7e9f4a3b3179a99213fcde7864736f6c63430008110033",
  "linkReferences": {},
  "deployedLinkReferences": {}
}